:100000000C945D000C9485000C9485000C94850084
:100010000C9485000C9485000C9485000C9485004C
:100020000C9485000C9485000C9485000C9485003C
:100030000C9485000C9485000C9485000C9485002C
:100040000C9434080C9485000C9402080C94DC0782
:100050000C9485000C9485000C9485000C9485000C
:100060000C9485000C94850000000008000201003B
:100070000003040700000000000000000000000072
:10008000250028002B0000000000240027002A0083
:10009000040404040404040402020202020203032E
:1000A0000303030301020408102040800102040836
:1000B00010200102040810207E0811241FBECFEF7B
:1000C000D8E0DEBFCDBF11E0A0E0B1E0E6E5F9E1A8
:1000D00002C005900D92A634B107D9F723E0A6E43B
:1000E000B1E001C01D92A031B207E1F710E0CDE50B
:1000F000D0E004C02197FE010E94810CCC35D107CD
:10010000C9F70E94E5080C94A90C0C94000090E03B
:10011000FC01EC55FF4F249180579F4FFC018491C7
:10012000882399F090E0880F991FFC01EA57FF4F50
:10013000A591B491FC01E458FF4F859194918FB73C
:10014000F894EC91E22BEC938FBF0895AF92BF929D
:10015000CF92DF92EF92FF920F931F93CF93DF9393
:100160006C017B018B01040F151FEB015E01AE18C2
:10017000BF08C017D10759F06991D601ED91FC91E4
:100180000190F081E02DC6010995892B79F7C50111
:10019000DF91CF911F910F91FF90EF90DF90CF9063
:1001A000BF90AF900895FC01538D448D252F30E012
:1001B000842F90E0821B930B541710F0CF96089574
:1001C00001970895FC01918D828D981761F0A28DA1
:1001D000AE0FBF2FB11D5D968C91928D9F5F9F7367
:1001E000928F90E008958FEF9FEF0895FC01918D1D
:1001F000828D981731F0828DE80FF11D858D90E08A
:1002000008958FEF9FEF0895FC01918D228D892F26
:1002100090E0805C9F4F821B91098F73992708950E
:100220008FE491E00E94040121E0892B09F420E091
:10023000822F089580E090E0892B29F00E94100120
:1002400081110C9400000895FC01A48DA80FB92F12
:10025000B11DA35ABF4F2C91848D90E001968F73EE
:100260009927848FA689B7892C93A089B1898C910D
:10027000837080648C93938D848D981306C002885C
:10028000F389E02D80818F7D80830895EF92FF9226
:100290000F931F93CF93DF93EC0181E0888F9B8DA9
:1002A0008C8D98131AC0E889F989808185FF15C063
:1002B0009FB7F894EE89FF896083E889F989808186
:1002C0008370806480839FBF81E090E0DF91CF9155
:1002D0001F910F91FF90EF900895F62E0B8D10E077
:1002E0000F5F1F4F0F731127E02E8C8D8E110CC0E6
:1002F0000FB607FCFACFE889F989808185FFF5CF31
:10030000CE010E942401F1CFEB8DEC0FFD2FF11DEA
:10031000E35AFF4FF0829FB7F8940B8FEA89FB896D
:1003200080818062CFCFCF93DF93EC01888D8823CB
:10033000B9F0AA89BB89E889F9898C9185FD03C048
:10034000808186FD0DC00FB607FCF7CF8C9185FF2D
:10035000F2CF808185FFEDCFCE010E942401E9CF4D
:10036000DF91CF91089590E0FC01E859FF4F24916F
:10037000FC01EC55FF4F3491FC01E057FF4FE49135
:10038000EE23C9F0222339F0233001F1A8F4213003
:1003900019F1223029F1F0E0EE0FFF1FE458FF4F72
:1003A000A591B4918FB7F894EC91611126C0309566
:1003B0003E233C938FBF08952730A9F02830C9F021
:1003C000243049F7809180008F7D03C080918000A8
:1003D0008F7780938000DFCF84B58F7784BDDBCFAC
:1003E00084B58F7DFBCF8091B0008F778093B00074
:1003F000D2CF8091B0008F7DF9CF3E2BDACF3FB7BF
:10040000F89480914B0190914C01A0914D01B091D5
:100410004E0126B5A89B05C02F3F19F00196A11DDE
:10042000B11D3FBFBA2FA92F982F8827BC01CD013E
:10043000620F711D811D911D42E0660F771F881F9D
:10044000991F4A95D1F708958F929F92AF92BF92CC
:10045000CF92DF92EF92FF920E94FF014B015C016D
:1004600088EBC82E8BE0D82EE12CF12C0E94FF01E6
:10047000681979098A099B09683E734081059105CD
:10048000A8F321E0C21AD108E108F10888EE880E2D
:1004900083E0981EA11CB11CC114D104E104F10435
:1004A00029F7FF90EF90DF90CF90BF90AF909F9093
:1004B0008F9008954F925F926F927F92AF92BF920A
:1004C000CF92DF92EF92FF920F931F93CF93DF9320
:1004D000EC015A018B01488C598C6A8C7B8C73011E
:1004E0006201F7FAF094F7F8F0949A01AB01C701B2
:1004F000B6010E94F00B181664F09501A801C30123
:10050000B2010E94910A7301620187FD02C0650178
:10051000780120E030E0A901C701B6010E94910AEC
:10052000811117C01CA21DA21EA21FA2CC8ADD8AA7
:10053000EE8AFF8ADF91CF911F910F91FF90EF908C
:10054000DF90CF90BF90AF907F906F905F904F9073
:100550000895A701960160E074E284E799E40E949F
:10056000960A9F770E940F0B6CA37DA38EA39FA377
:1005700011E020E030E0A901C701B6010E94F00BB4
:1005800018160CF010E01A83D1CFCF93DF93FC0143
:100590002381222329F1EC0184810E9487008D812F
:1005A0000E9487008B81843011F0883099F48E810D
:1005B0000E9487008F810E9487008FA58F3F81F066
:1005C0000E9487006EA581E068278FA5DF91CF91FB
:1005D0000C94B301833011F0863079F78E81EBCF24
:1005E000DF91CF910895CF93DF93FC0123812223E4
:1005F000A1F0EC010190F081E02D0480F581E02D67
:1006000060E009958FA58F3F41F00E9487006EA59D
:100610008FA5DF91CF910C94B301DF91CF91089515
:10062000DC01ED91FC9124813581477055276627C7
:10063000772741505109610971094730510561051A
:10064000710560F4FA01E95DFC4F0C94810C3103F3
:1006500033033503370339033B033D0361E0F901FD
:10066000099465E0FCCF64E0FACF66E0F8CF62E081
:10067000F6CF6AE0F4CF68E0F2CF69E0F0CFCF9335
:10068000DF93EC01CB01BA0126E030E040E050E01E
:100690000E94620C623071058105910589F16CF44C
:1006A0006115710581059105D1F0613071058105F4
:1006B0009105F9F0DF91CF910895643071058105BE
:1006C000910561F124F1653071058105910591F77E
:1006D000E881F9810480F581E02D66E006C0E881BB
:1006E000F9810480F581E02D64E0CE01DF91CF91A6
:1006F0000994E881F9810480F581E02D65E0F5CF6A
:10070000E881F9810480F581E02D61E0EECFE88198
:10071000F9810480F581E02D63E0E7CFE881F9817C
:100720000480F581E02D62E0E0CFDC01ED91FC91E9
:100730000480F581E02D43705527662777274230E6
:1007400051056105710571F0433051056105710571
:1007500059F0413051056105710511F065E00994CA
:1007600066E0FDCF6AE0FBCF69E0F9CFCF93DF937E
:10077000EC01CB01BA0123E030E040E050E00E9400
:10078000620C613071058105910599F06230710547
:1007900081059105A9F0672B682B692BC1F4E881CD
:1007A000F9810480F581E02D64E0CE01DF91CF91E5
:1007B0000994E881F9810480F581E02D61E0F5CFAD
:1007C000E881F9810480F581E02D62E0EECFDF91D0
:1007D000CF910895DC01ED91FC910480F581E02D2D
:1007E000437055276627772742305105610571050B
:1007F00071F0433051056105710559F041305105E3
:100800006105710511F062E0099463E0FDCF61E0DC
:10081000FBCF60E0F9CFCF93DF93EC01E881F98162
:100820000480F581E02D8A8160E0811162E0CE01D3
:100830000995E881F9810480F581E02D8A8161E0E4
:10084000811163E0CE0109958CA59DA582309105AB
:1008500038F0880F991F880F991F05970197F1F7B6
:10086000E881F9810480F581E02D8A8160E08111C1
:1008700062E0CE01DF91CF910994CF93DF93EC0139
:1008800020E030E0A9016C897D898E899F890E94D2
:10089000F00B18162CF4E8A9F9A9DF91CF9109946F
:1008A000EAA9FBA9FACFCF92DF92EF92FF920F93C2
:1008B0001F93CF93DF93DC011396CC91C43039F0B2
:1008C000C83059F1C33019F0C63049F1C2E08C018B
:1008D0000C5F1F4FF12CE12CC62ED12CD1E0F8017A
:1008E0006481C6010E2C02C0959587950A94E2F7A3
:1008F00080FD6D270F5F1F4F80810E94B301BFEF06
:10090000EB1AFB0AEC1658F3DF91CF911F910F9170
:10091000FF90EF90DF90CF900895C4E0D8CFC3E070
:10092000D6CFDC011396EC911397E93008F038C06C
:10093000F0E0E356FB4F0C94810CA604AC04B20427
:10094000B804BE04D004C404D004CA04ED91FC91E0
:100950000084F185E02D0994ED91FC910284F385EA
:10096000E02DF9CFED91FC910484F585E02DF3CFD6
:10097000ED91FC910684F785E02DEDCFED91FC9192
:100980000088F189E02DE7CFED91FC910288F38991
:10099000E02DE1CFED91FC910488F589E02DDBCFCE
:1009A00008954F925F926F927F928F929F92AF9233
:1009B000BF92CF92DF92EF92FF920F931F93CF934C
:1009C000DF93EC01C888D988EA88FB888C859D85EF
:1009D000AE85BF85C81AD90AEA0AFB0A6C897D89E7
:1009E0008E899F899B01AC010E94F50B4B015C0134
:1009F0006C8D7D8D8E8D9F8D9B01AC010E94250A93
:100A00009B01AC01C501B4010E94960A0E94080B2B
:100A1000C114D104E104F10409F0B1C062307105E0
:100A2000810591050CF0CBC01CA21DA21EA21FA225
:100A30001C8A1D8A1E8A1F8A1CAA1DAA1EAA1FAAFA
:100A4000DF91CF911F910F91FF90EF90DF90CF90AA
:100A5000BF90AF909F908F907F906F905F904F90DE
:100A600008951016110612061306B4F46C157D05D0
:100A70008E059F051CF42A812111A1C09B01AC01A8
:100A800088279927DC01821B930BA40BB50B8CAB39
:100A90009DABAEABBFAB93C0011511052105310570
:100AA00009F48DC06C157D058E059F050CF087C07F
:100AB0008A81882309F483C030952095109501958B
:100AC0001F4F2F4F3F4F0CAB1DAB2EAB3FAB77C033
:100AD000011511052105310509F471C088249924F7
:100AE00054018C189D08AE08BF08681579058A0561
:100AF0009B050CF064C08A81811161C0DDCFCCAC54
:100B0000DDACEEACFFACA7019601C701B6010E94B7
:100B1000250A2B013C01C501B4010E94400B20E0D5
:100B200030E040E850E40E94F50B20E030E040E87F
:100B30005FE30E94250A9B01AC01C301B2010E9440
:100B4000960A9B01AC01C701B6010E94240A3B0131
:100B50006C01FE01E05CFF4FE080F18002811381B7
:100B60009701A8010E94F00B181614F47301860176
:100B7000C701D8018CAF9DAFAEAFBFAF3AC00CA9D3
:100B80001DA92EA93FA91C141D041E041F040CF44A
:100B900068CF10161106120613060CF099CF002725
:100BA000112798010C191D092E093F0960177107BB
:100BB000820793070CF062CF2A8121115FCF8CA8A6
:100BC0009DA8AEA8BFA881149104A104B10409F0A6
:100BD00096CF88AD99ADAAADBBAD8CAF9DAFAEAF92
:100BE000BFAF81E01C141D041E041F040CF080E044
:100BF0008A833FEF831A930AA30AB30A8CAA9DAA99
:100C0000AEAABFAACCACDDACEEACFFACC701B6015E
:100C10000E940F0B6CA37DA38EA39FA3A701960137
:100C200060E074E284E799E40E94960A6C8B7D8B05
:100C30008E8B9F8B2A81211103CF90586C8B7D8BDB
:100C40008E8B9F8BFDCECF92DF92EF92FF92CF9350
:100C5000DF93EC016A017B01E881F0E0EE0FFF1FFA
:100C6000E050FF4F0190F081E02D14861586168626
:100C70001786108A118A128A138A14AA15AA16AA2C
:100C800017AA14A215A216A217A2148A158A168AE8
:100C9000178AE881F0E0EE0FFF1FE050FF4F8081E0
:100CA0009181FC014089518962897389C416D506F6
:100CB000E606F70631F0C08AD18AE28AF38A0E94FA
:100CC000D104E881F0E0EE0FFF1FE050FF4FC0813C
:100CD000D181F7FC1BC0C12CD12C9AE7E92E94E4FA
:100CE000F92E2C893D894E895F89C701B6010E9482
:100CF000910A882391F0B701A601CE01DF91CF912F
:100D0000FF90EF90DF90CF900C945A02C12CD12C21
:100D10008AE7E82E84ECF82EE4CFDF91CF91FF90A4
:100D2000EF90DF90CF9008958F929F92AF92BF92F5
:100D3000EF92FF920F931F93CF93DF9300E011E0A8
:100D4000E80189919991DC01ED91FC910280F38198
:100D5000E02D0995B1E0C830DB0799F780E0E82E77
:100D600081E0F82EB12CF701C191D1917F01488922
:100D700059896A897B898C859D85AE85BF85481791
:100D800059076A077B0709F464C08CA19DA1AEA135
:100D9000BFA1892B8A2B8B2B19F5BB24B394F8E0C8
:100DA000EF16F1E0FF06F9F6B110D8CFD8018D911A
:100DB0009D918D01DC01ED91FC910190F081E02D80
:100DC0000995B1E008301B0789F7DF91CF911F919A
:100DD0000F91FF90EF90BF90AF909F908F900895EC
:100DE0000E94FF014B015C0188A599A5AAA5BBA59E
:100DF000B501A401481B590B6A0B7B0B8CA19DA16B
:100E0000AEA1BFA1481759076A077B0730F28C854E
:100E10009D85AE85BF852A812223B9F00196A11D4B
:100E2000B11D8C879D87AE87BF874C855D856E859C
:100E30007F85E881F9810680F781E02DCE01099553
:100E400088A699A6AAA6BBA6A8CF0197A109B10911
:100E5000E8CF20E030E0A9016C897D898E899F89E7
:100E60000E94910A882309F49ACF40E050E0BA0129
:100E7000CE010E945A0293CF8F929F92AF92BF925F
:100E8000CF92DF92EF92FF920F93CF93DF93EC011B
:100E90008CE091E09983888388E08B831C861D8693
:100EA0001E861F86188A198A1A8A1B8A1C8A1D8A1E
:100EB0001E8A1F8AC12CD12C80E8E82E8FE3F82EE1
:100EC000C88ED98EEA8EFB8E1C8E1D8E1E8E1F8EB6
:100ED000C8A2D9A2EAA2FBA21CA21DA21EA21FA206
:100EE00081E090E09DA78CA78FEF8FA718A619A689
:100EF0001AA61BA66C834D832E830F831EA61CAAE5
:100F00001DAA1EAA1FAA18AE19AE1AAE1BAE1CAEA1
:100F10001DAE1EAE1FAEFE01E05CFF4FC082D1824F
:100F2000E282F3821A82188619861A861B86CE01FF
:100F30000E94C5028C8C9D8CAE8CBF8CA701960143
:100F4000C501B4010E94910A882351F16CA97DA9C1
:100F50008EA99FA90E94400BA50194010E94F50B48
:100F60000E94080B6CAB7DAB8EAB9FAB86E896E620
:100F7000A9E6B9E488AF99AFAAAFBBAFCC8EDD8E3E
:100F8000EE8EFF8ECE01DF91CF910F91FF90EF900B
:100F9000DF90CF90BF90AF909F908F900C94D10432
:100FA000DF91CF910F91FF90EF90DF90CF90BF90A6
:100FB000AF909F908F9008951F920F920FB60F924F
:100FC00011242F933F934F935F936F937F938F934E
:100FD0009F93AF93BF93EF93FF938FE491E00E94B1
:100FE0002401FF91EF91BF91AF919F918F917F91DC
:100FF0006F915F914F913F912F910F900FBE0F9086
:101000001F9018951F920F920FB60F9211242F93D5
:101010008F939F93EF93FF93E0915F01F0916001B5
:101020008081E0916501F091660182FD1BC0908195
:10103000809168018F5F8F7320916901821741F061
:10104000E0916801F0E0E15BFE4F958F80936801CD
:10105000FF91EF919F918F912F910F900FBE0F9065
:101060001F9018958081F4CF1F920F920FB60F92A8
:1010700011242F933F938F939F93AF93BF938091AE
:10108000470190914801A0914901B0914A013091E6
:10109000460123E0230F2D3758F50196A11DB11D00
:1010A000209346018093470190934801A093490102
:1010B000B0934A0180914B0190914C01A0914D0158
:1010C000B0914E010196A11DB11D80934B019093EB
:1010D0004C01A0934D01B0934E01BF91AF919F91F0
:1010E0008F913F912F910F900FBE0F901F901895E9
:1010F00026E8230F0296A11DB11DD2CF0F93EFE476
:10110000F1E01382128288EE93E0A0E0B0E08483E5
:101110009583A683B78386E291E09183808385ECF3
:1011200090E09587848784EC90E09787868780ECB1
:1011300090E0918B808B81EC90E0938B828B82ECA2
:1011400090E0958B848B86EC90E0978B868B118E4C
:10115000128E138E148E05E023E044E062E088EBEB
:1011600092E00E943C0709E027E048E066E084E75F
:1011700092E00E943C0701E12FE040E16EE080E355
:1011800092E00E943C070DE02BE04CE06AE08CEE20
:1011900091E00E943C07EBE0F3E010828AE081835B
:1011A0008283E6E0F3E091E0908381838283E1E053
:1011B000F3E092E0908381838283ECEFF2E093E0AE
:1011C0009083818382830F910895789484B582609F
:1011D00084BD84B5816084BD85B5826085BD85B5DB
:1011E000816085BD80916E00816080936E00109259
:1011F00081008091810082608093810080918100D4
:101200008160809381008091800081608093800064
:101210008091B10084608093B1008091B0008160C2
:101220008093B00080917A00846080937A008091EE
:101230007A00826080937A0080917A008160809346
:101240007A0080917A00806880937A001092C100C1
:10125000E0915F01F091600182E08083E0915B01A9
:10126000F0915C011082E0915D01F0915E0180E1FE
:10127000808310926701E0916301F091640186E040
:101280008083E0916101F0916201808180618083BF
:10129000E0916101F0916201808188608083E0913A
:1012A0006101F0916201808180688083E091610139
:1012B000F091620180818F7D808300E011E0F80170
:1012C000C191D1918F0120E030E04AE754E4688D6C
:1012D000798D8A8D9B8D0E94910A8823D9F16C8922
:1012E0007D898E899F89C12CD12C2AE7E22E24E4A6
:1012F000F22EC88ED98EEA8EFB8EFE01E05CFF4F87
:10130000C082D182E282F382CCA8DDA8EEA8FFA839
:101310001C141D041E041F04ECF49B01AC010E946C
:10132000F50B6B017C016C8D7D8D8E8D9F8D9B01EE
:10133000AC010E94250A9B01AC01C701B6010E94C5
:10134000960A0E94080B6CAB7DAB8EAB9FABCE01B7
:101350000E94D10420E030E0A9016C897D898E894A
:101360009F890E94910A882331F040E050E0BA0141
:10137000CE010E945A02E881F9810190F081E02DAE
:10138000CE010995F1E008301F0709F098CF40E140
:1013900050E064E371E08FE491E00E94A600C0E0B9
:1013A000D0E00E94240240E050E160E070E08BE079
:1013B00093E00E94230640E050E160E070E086E0A8
:1013C00093E00E94230640E050E160E070E081E09D
:1013D00093E00E94230640E050E160E070E08CEF73
:1013E00092E00E9423060E9494060E94240240E09C
:1013F00050EF6FEF7FEF8BE093E00E94230640E019
:1014000050EF6FEF7FEF86E093E00E94230640E00D
:1014100050EF6FEF7FEF81E093E00E94230640E002
:1014200050EF6FEF7FEF8CEF92E00E9423060E9457
:101430009406209709F4B5CF0E941001882309F47F
:10144000B0CF0E940000ADCF5058BB27AA270E9402
:101450003C0A0C94B60B0E94A80B38F00E94AF0B0C
:1014600020F039F49F3F19F426F40C94A50B0EF4E8
:10147000E095E7FB0C949F0BE92F0E94C70B58F3F4
:10148000BA17620773078407950720F079F4A6F569
:101490000C94E90B0EF4E0950B2EBA2FA02D0B0146
:1014A000B90190010C01CA01A0011124FF27591BA9
:1014B00099F0593F50F4503E68F11A16F040A22FAF
:1014C000232F342F4427585FF3CF46953795279520
:1014D000A795F0405395C9F77EF41F16BA0B620B1F
:1014E000730B840BBAF09150A1F0FF0FBB1F661F66
:1014F000771F881FC2F70EC0BA0F621F731F841FA9
:1015000048F4879577956795B795F7959E3F08F0CE
:10151000B0CF9395880F08F09927EE0F9795879590
:1015200008950E947B0B08F481E008950E94AA0AA6
:101530000C94B60B0E94AF0B58F00E94A80B40F021
:1015400029F45F3F29F00C949F0B51110C94EA0B86
:101550000C94A50B0E94C70B68F39923B1F3552394
:1015600091F3951B550BBB27AA27621773078407B6
:1015700038F09F5F5F4F220F331F441FAA1FA9F34C
:1015800035D00E2E3AF0E0E832D091505040E6953A
:10159000001CCAF72BD0FE2F29D0660F771F881F9B
:1015A000BB1F261737074807AB07B0E809F0BB0B8E
:1015B000802DBF01FF2793585F4F3AF09E3F5105A2
:1015C00078F00C949F0B0C94EA0B5F3FE4F3983E89
:1015D000D4F3869577956795B795F7959F5FC9F78B
:1015E000880F911D9695879597F90895E1E0660F0C
:1015F000771F881FBB1F621773078407BA0720F085
:10160000621B730B840BBA0BEE1F88F7E0950895ED
:101610000E940F0B6894B1110C94EA0B08950E947C
:10162000CF0B88F09F5798F0B92F9927B751B0F09A
:10163000E1F0660F771F881F991F1AF0BA95C9F756
:1016400014C0B13091F00E94E90BB1E008950C9400
:10165000E90B672F782F8827B85F39F0B93FCCF3B3
:10166000869577956795B395D9F73EF490958095D3
:10167000709561957F4F8F4F9F4F0895E89409C0F3
:1016800097FB3EF490958095709561957F4F8F4FB5
:101690009F4F9923A9F0F92F96E9BB279395F695CB
:1016A000879577956795B795F111F8CFFAF4BB0F49
:1016B00011F460FF1BC06F5F7F4F8F4F9F4F16C0AD
:1016C000882311F096E911C0772321F09EE8872F37
:1016D000762F05C0662371F096E8862F70E060E0F3
:1016E0002AF09A95660F771F881FDAF7880F96956C
:1016F000879597F90895990F0008550FAA0BE0E810
:10170000FEEF16161706E807F907C0F012161306C3
:10171000E407F50798F0621B730B840B950B39F403
:101720000A2661F0232B242B252B21F408950A2669
:1017300009F4A140A6958FEF811D811D089597F9A9
:101740009F6780E870E060E008959FEF80EC089567
:1017500000240A9416161706180609060895002490
:101760000A9412161306140605060895092E03940A
:10177000000C11F4882352F0BB0F40F4BF2B11F47E
:1017800060FF04C06F5F7F4F8F4F9F4F089557FDDD
:101790009058440F551F59F05F3F71F04795880FDF
:1017A00097FB991F61F09F3F79F087950895121676
:1017B00013061406551FF2CF4695F1DF08C0161622
:1017C00017061806991FF1CF8695710561050894D3
:1017D0000895E894BB2766277727CB0197F90895EA
:1017E0000E947B0B08F48FEF08950E94080C0C9464
:1017F000B60B0E94A80B38F00E94AF0B20F0952387
:1018000011F00C949F0B0C94A50B11240C94EA0B73
:101810000E94C70B70F3959FC1F3950F50E0551FC1
:10182000629FF001729FBB27F00DB11D639FAA2735
:10183000F00DB11DAA1F649F6627B00DA11D661F84
:10184000829F2227B00DA11D621F739FB00DA11DA5
:10185000621F839FA00D611D221F749F3327A00D5F
:10186000611D231F849F600D211D822F762F6A2FFB
:1018700011249F5750409AF0F1F088234AF0EE0F60
:10188000FF1FBB1F661F771F881F91505040A9F78D
:101890009E3F510580F00C949F0B0C94EA0B5F3F28
:1018A000E4F3983ED4F3869577956795B795F795C9
:1018B000E7959F5FC1F7FE2B880F911D9695879541
:1018C00097F90895052E97FB1EF400940E94790C59
:1018D00057FD07D00E94870C07FC03D04EF40C94F0
:1018E000790C50954095309521953F4F4F4F5F4F64
:1018F000089590958095709561957F4F8F4F9F4F7C
:101900000895EE0FFF1F0590F491E02D0994A1E2D8
:101910001A2EAA1BBB1BFD010DC0AA1FBB1FEE1F69
:10192000FF1FA217B307E407F50720F0A21BB30BB4
:10193000E40BF50B661F771F881F991F1A9469F730
:1019400060957095809590959B01AC01BD01CF018C
:061950000895F894FFCF9A
:10195600B80274023002EC0100000000F302C50276
:10196600530491043D040B04EA03B60395033F03B5
:101976001003000000004601A600D30093010401F5
:10198600E200F6005374617274696E672075702008
:061996002E2E2E0A0000B7
:00000001FF
